:200000000C942E0E0C945F0E0C945F0E0C945F0E0C945F0E0C945F0E0C945F0E0C945F0EA9
:200020000C945F0E0C945F0E0C945F0E0C945F0E0C945F0E0C94DDB60C945F0E0C945F0E32
:200040000C945F0E0C94396A0C945F0E0C945F0E0C945F0E0C945F0E0C940B7A0C94C0B0E7
:200060000C945F0E0C94F9140C945F0E0C945F0E0C945F0E0C945F0E0C945F0E0C945F0E78
:200080000C945F0E0C945F0E0C945F0E0C945F0E0C945F0E0C945F0E0C945F0E0C945F0EF8
:2000A0000C945F0E0C945F0E0C945F0E0C945F0E0C945F0E0C945F0E0C945F0E0C945F0ED8
:2000C0000C945F0E0C945F0E0C945F0E0C945F0E0C945F0E0C945F0E0C945F0E0C945F0EB8
:2000E0000C945F0E5D7A6C7A887A977AB17AC07ADA7ADE7A01B206B20BB215B21FB298B208
:2001000029B231B239B243B24DB257B266B270B298B27AB284B28EB2BAB2BDB2ACB2B0B278
:20012000B6B2F4B2C1B2C5B2CBB2CFB2D3B2D9B2DDB2E1B2F4B2E7B2EBB2EFB2084AD73BB6
:200140003BCE016E84BCBFFDC12F3D6C74319ABD56833DDA3D00C77F11BED9E4BB4C3E91C1
:200160006BAAAABE000000803F05A84CCDB2D44EB93836A9020C50B9918688083CA6AAAAE5
:200180002ABE000000803F0048617264636F6465642044656661756C742053657474696EBE
:2001A0006773204C6F616465640053746F7265642073657474696E6773207265747269654F
:2001C000766564002044002049002020204D3330312050005049442073657474696E6773F4
:2001E0003A00205A0020590020204D323036205800486F6D65206F666673657420286D6DE3
:20020000293A00204500205A0020580020420020540020204D323035205300416476616ECD
:20022000636564207661726961626C65733A20533D4D696E20666565647261746520286D96
:200240006D2F73292C20543D4D696E2074726176656C20666565647261746520286D6D2F06
:2002600073292C20423D6D696E696D756D207365676D656E742074696D6520286D73292CBC
:2002800020583D6D6178696D756D205859206A65726B20286D6D2F73292C20205A3D6D6150
:2002A00078696D756D205A206A65726B20286D6D2F73292C2020453D6D6178696D756D20CF
:2002C00045206A65726B20286D6D2F73290020540020204D323034205300416363656C65D9
:2002E000726174696F6E3A20533D616363656C65726174696F6E2C20543D7265747261633F
:200300007420616363656C65726174696F6E00204500205A0020590020204D32303120586F
:20032000004D6178696D756D20416363656C65726174696F6E20286D6D2F7332293A00207C
:200340004500205A0020590020204D3230332058004D6178696D756D2066656564726174F2
:20036000657320286D6D2F73293A00426564204C6576656C204D6174726978203A00204507
:2003800000205A0020590020204D393220580053746570732070657220756E69743A005317
:2003A000657474696E67732053746F726564006563686F3A0053544F505045442E20005018
:2003C00072696E7465722073746F707065642064756520746F206572726F72732E2046694F
:2003E0007820746865206572726F7220616E6420757365204D39393920746F207265737421
:200400006172742E202854656D70657261747572652069732072657365742E2053657420B8
:2004200069742061667465722072657374617274696E6729004B494C4C45442E200050725C
:20044000696E7465722068616C7465642E206B696C6C28292063616C6C656421006F6B001D
:20046000526573656E643A20002200556E6B6E6F776E20636F6D6D616E643A2022007A5F5B
:200480006D61783A20007A5F6D696E3A2000795F6D61783A2000785F6D61783A20005A3AC2
:2004A00000593A0020436F756E7420583A2000453A005A3A00593A00583A004649524D57F1
:2004C0004152455F4E414D453A4D61726C696E2056313B20537072696E7465722F67726264
:2004E0006C206D617368757020666F722067656E36204649524D574152455F55524C3A687A
:200500007474703A2F2F7777772E6D656E64656C2D70617274732E636F6D2050524F544F6B
:20052000434F4C5F56455253494F4E3A312E30204D414348494E455F545950453A41544FBB
:200540004D20506C75732045585452554445525F434F554E543A310A0041544F4D20506C8D
:200560007573204F66662E0041544F4D20506C75732052656164790042656420646F6E654F
:200580002E0020423A0020453A00543A004265642048656174696E672E0048656174696EF2
:2005A0006720646F6E652E0020573A0020453A00543A0048656174696E672E2E2E00204256
:2005C000403A0020403A00202F003A00205400202F0020423A00202F006F6B20543A002523
:2005E00069206D696E2C2025692073656300456E642066696C65206C6973740042656769CF
:200600006E2066696C65206C697374004E6F206D6F76652E00526573756D696E67207072C2
:20062000696E74005761697420666F7220757365722E2E2E00536C6565702E2E2E00200067
:200640002000256920686F757273202569206D696E7574657300446F6E65207072696E74F5
:20066000696E672066696C650053544F505045442E20005072696E7465722073746F7070D5
:2006800065642064756520746F206572726F72732E2046697820746865206572726F722033
:2006A000616E6420757365204D39393920746F20726573746172742E202854656D70657277
:2006C00061747572652069732072657365742E2053657420697420616674657220726573A7
:2006E00074617274696E6729006F6B004E6F204C696E65204E756D62657220776974682014
:20070000636865636B73756D2C204C617374204C696E653A20004E6F20436865636B737501
:200720006D2077697468206C696E65206E756D6265722C204C617374204C696E653A20001D
:20074000636865636B73756D206D69736D617463682C204C617374204C696E653A20004CA2
:20076000696E65204E756D626572206973206E6F74204C617374204C696E65204E756D6239
:2007800065722B312C204C617374204C696E653A20004D31313000446F6E6520736176690C
:2007A0006E672066696C652E006F6B004D3239002020506C616E6E65724275666665724238
:2007C000797465733A20002046726565204D656D6F72793A20004A756C20313820323031FE
:2007E0003600436F6D70696C65643A2000286A63726F63686F6C6C2C204D696E69204B6FA1
:200800007373656C2900207C20417574686F723A20004A756C20313820323031362031324F
:200820003A33313A303300204C61737420557064617465643A2000312E302E30004D61727B
:200840006C696E200020536F66747761726520526573657400205761746368646F672052E4
:2008600065736574002042726F776E206F7574205265736574002045787465726E616C2081
:20088000526573657400506F7765725570007374617274002200656E717565696E67202295
:2008A000002200656E717565696E672022000101010000A0400000A0400000A0400000963F
:2008C000440000964400C07844000000000000000000C07844000016440000164400C07816
:2008E00044000016C4000016C4000000006563686F3A004572726F723A007C3C3E5E2B3D27
:200900003F2F5B5D3B2C2A225C004D383420582059205A20450043616E6E6F7420656E744F
:200920006572207375626469723A20004D3234004D3233202573006175746F25692E6700E4
:200940006572726F722077726974696E6720746F2066696C65004E6F742053442070726933
:200960006E74696E67002F005344207072696E74696E67206279746520002E0044656C656A
:2009800074696F6E206661696C65642C2046696C653A200046696C652064656C657465647B
:2009A0003A002E006F70656E206661696C65642C2046696C653A200057726974696E67206E
:2009C000746F2066696C653A20002E006F70656E206661696C65642C2046696C653A20008F
:2009E0002E006F70656E206661696C65642C2046696C653A200046696C652073656C6563C0
:200A0000746564002053697A653A200046696C65206F70656E65643A20002E006F70656E2F
:200A2000206661696C65642C2046696C653A200053442063617264206F6B006F70656E52BC
:200A40006F6F74206661696C656400766F6C756D652E696E6974206661696C656400534429
:200A600020696E6974206661696C006563686F3A004572726F723A0020746F6F206C6F6EEE
:200A80006720657874727573696F6E2070726576656E7465640020636F6C6420657874724C
:200AA0007573696F6E2070726576656E746564006563686F3A00656E6473746F707320684A
:200AC00069743A205A00205A3A00656E6473746F7073206869743A20590020593A00656EC3
:200AE0006473746F7073206869743A20580020583A00656E6473746F7073206869743A2061
:200B00000024F4D43050C38E20C2A24017828B7011127A910D816CD90AA861E108C758663E
:200B200007615143061E4B5D05C145A7041A411104093D9803713931034036DB026533918C
:200B400002D4305402802E1D02632CEE01752AC501B028A001102781018F2564012B244BA4
:200B600001E0223401AC211F018D200D01801FFC00841EED00971DDF00B81CD200E61BC66B
:200B800000201BBC00641AB200B219A8000A19A0006A189900D117910040178B00B5168433
:200BA0000031167E00B31579003A157300C7146F0058146A00EE1366008813630025135E52
:200BC00000C7125B006C12570015125400C111510070114F0021114B00D61049008D10470E
:200BE000004610440002104200C00F4000800F3E00420F3C00060F3B00CB0E3800930E3765
:200C0000005C0E3500270E3400F30D3200C10D3100900D3000600D2E00320D2D00050D2C89
:200C200000D90C2B00AE0C2900850C29005C0C2700350C27000E0C2600E80B2400C40B24C6
:200C400000A00B23007D0B23005A0B2100390B2100180B2000F80A1F00D90A1E00BB0A1EE8
:200C6000009D0A1D00800A1D00630A1C00470A1B002C0A1B00110A1A00F7091A00DD091975
:200C800000C4091900AB091900920917007B091800630917004C09160036091600200916D1
:200CA000000A091500F5081500E0081400CC081400B8081400A4081400900813007D081240
:200CC000006B081300580812004608120034081100230811001208110001081100F00710E7
:200CE00000E0071000D0071000C0071000B0070F00A107100091070E0083070F0074070FF8
:200D00000065070E0057070E0049070E003B070D002E070E0020070D0013070D0006070D88
:200D200000F9060C00ED060D00E0060C00D4060C00C8060C00BC060C00B0060C00A4060BB1
:200D40000099060C008D060B0082060B0077060B006C060B0061060A0057060B004C060A7D
:200D60000042060A0038060A002E060A0024060A001A060A001006090007060A00FD0509FC
:200D800000F4050900EB050900E2050900D9050900D0050900C7050900BE050900B5050840
:200DA00000AD050800A50509009C050800940508008C050800840508007C05080074050848
:200DC000006C050700650508005D050700560508004E05070047050700400508003805071F
:200DE00000310507002A050700230507001C050600160507000F05070008050600020507CC
:200E000000FB040600F5040700EE040600E8040600E2040700DB040600D5040600CF040659
:200E200000C9040600C3040600BD040600B7040600B1040500AC040600A6040600A00405C1
:200E4000009B04060095040500900406008A04050085040500800406007A04050075040509
:200E600000700405006B04050066040500610405005C04050057040500520405004D040536
:200E80000048040500430405003E0404003A04050035040500300404002C04050027040452
:200EA00000230405001E0404001A04040016040500110404000D0404000904050004040453
:200EC0000000040400FC030400F8030400F4030400F0030400EC030400E8030400E4030449
:200EE00000E0030400DC030400D8030400D4030400D0030400CC030400C8030300C503032B
:200F00000024F404D9201BC40C5C0E9804C4095F0265077101F405F900FB04B30048048748
:200F200000C10369005803550003034500BE023A008402310053022A0029022500040220E3
:200F400000E4011C00C8011900AF0117009801140084011300710110006101100051010E4E
:200F60000043010D0036010B002B010B0020010B00150109000C01090003010800FB000837
:200F800000F3000800EB000700E4000600DE000600D8000600D2000600CC000500C7000543
:200FA00000C2000500BD000400B9000400B5000400B1000400AD000400A9000400A5000378
:200FC00000A20003009F0004009B000300980003009500020093000300900003008D000241
:200FE000008B000300880002008600020084000300810002007F0002007D0002007B0002CA
:20100000007900020077000100760002007400020072000100710002006F0002006D00012A
:20102000006C0002006A00010069000200670001006600010065000100640002006200016E
:201040000061000100600001005F0002005D0001005C0001005B0001005A000100590001A0
:201060000058000100570001005600010055000100540001005300000053000100520001C3
:201080000051000100500001004F0001004E0000004E0001004D0001004C0001004B0000DA
:2010A000004B0001004A0001004900010048000000480001004700010046000000460001E9
:2010C0000045000000450001004400010043000000430001004200000042000100410000F3
:2010E0000041000100400001003F0000003F0001003E0000003E0001003D0000003D0001F6
:20110000003C0000003C0000003C0001003B0000003B0001003A0000003A000100390000F5
:201120000039000100380000003800000038000100370000003700010036000000360000F1
:201140000036000100350000003500000035000100340000003400000034000100330000E8
:201160000033000000330001003200000032000000320001003100000031000000310001DD
:20118000003000000030000000300001002F0000002F0000002F0000002F0001002E0000D3
:2011A000002E0000002E0001002D0000002D0000002D0000002D0001002C0000002C0000C5
:2011C000002C0000002C0001002B0000002B0000002B0000002B0001002A0000002A0000B5
:2011E000002A0000002A0001002900000029000000290000002900000029000100280000A4
:20120000002800000028000000280000002800010027000000270000002700000027000091
:2012200000270001002600000026000000260000002600000026000100250000002500007D
:20124000002500000025000000250000002500010024000000240000002400000024000069
:20126000002400010023000000230000002300000023000000230000002300000023000153
:2012800000220000002200000022000000220000002200000022000100210000002100003F
:2012A000002100000021000000210000002100000021000100200000002000000020000028
:2012C0000020000000200000002000000020000000200001001F0000001F0000001F000010
:2012E000001F0000001F0000001F0000001F0001001E0000001E0000001E0000001E0000F9
:20130000006563686F3A004572723A204D494E54454D50003A204578747275646572207317
:2013200077697463686564206F66662E204D494E54454D50207472696767657265642021E4
:20134000004572723A204D415854454D50003A20457874727564657220737769746368652A
:2013600064206F66662E204D415854454D5020747269676765726564202100202D20496E02
:2013800076616C6964206578747275646572206E756D626572202100504944204175746F2A
:2013A00074756E652066696E6973686564212050757420746865204B702C204B6920616E62
:2013C00064204B6420636F6E7374616E747320696E746F20436F6E66696775726174696FF9
:2013E0006E2E6800504944204175746F74756E65206661696C6564212074696D656F7574CA
:201400000020403A006F6B20543A006F6B20423A00504944204175746F74756E65206661FB
:20142000696C6564212054656D706572617475726520746F6F206869676800204B643A20E4
:2014400000204B693A2000204B703A200020436C617369632050494420002054753A20005A
:20146000204B753A2000206D61783A2000206D696E3A200020643A200020626961733A20BD
:20148000004572726F723A001000BC0263012C017A01270194012201AF011D01CD01180199
:2014A000EE01130111020E0138020901620204019002FF00C302FA00FA02F5003703F000EF
:2014C0007903EB00C203E6001204E1006A04DC00CB04D7003605D200AC05CD002D06C8008D
:2014E000BC06C3005A07BE000808B900C808B4009C09AF00850AAA00860BA500A00CA000EC
:20150000D50D9B00260F96009710910027128C00D7138700A81582009A177D00AB1978006C
:20152000D81B73001E1E6E0078206900E222640053255F00C5275A00302A55008B2C50005F
:20154000D02E4B00F6304600F9324100D4343C0084363700073832005E392D00893A280015
:201560008C3B2300673C1E00203D1900BA3D1400383E0F009F3E0A00F13E0500323F00002E
:20158000436172642072656D6F766564004361726420696E736572746564004730204531BA
:2015A00030302046323030004730204531333530204637303030004739310047312046373B
:2015C00030303020452D3133353000473120463330303020452D323000473120463330301A
:2015E0002045333000473931002D2D3A2D2D002D2D2D00534400205900012000466C6F7734
:2016000000466C6F770046616E2073706565640046616E207370656564004E6F7A7A6C6524
:20162000004E6F7A7A6C65005370656564005370656564004D61696E00580059005A004571
:2016400078747275646572004578747275646572004D6F7665205A004D6F76652059004DBB
:201660006F76652058004D6F76652041786973004D6F766520302E316D6D004D6F76652085
:20168000316D6D004D6F76652031306D6D0050726570617265004D6F766520417869730032
:2016A0004D38300053776974636820506F776572204F6E004D383100537769746368205061
:2016C0006F776572204F666600436F6F6C646F776E00556E6C6F61642046696C616D656E8E
:2016E00074004C6F61642046696C616D656E740050726568656174203234302064656700D7
:2017000050726568656174203230302064656700473239004175746F204C6576656C004754
:201720003238004175746F20486F6D65004D38340044697361626C6520537465707065728D
:2017400073004D61696E0053746F7265206D656D6F7279004E6F7A7A6C65004E6F7A7A6C2C
:20176000650046616E2073706565640046616E2073706565640054656D706572617475724F
:20178000650053746F7265206D656D6F7279004E6F7A7A6C65004E6F7A7A6C650046616E05
:2017A0002073706565640046616E2073706565640054656D706572617475726500507265FD
:2017C0006865617420323430206465670050726568656174203230302064656700504944B9
:2017E0002D43005049442D43005049442D44005049442D44005049442D49005049442D49EA
:20180000005049442D50005049442D50002002204661637400200220466163740020022052
:201820004D6178002002204D6178002002204D696E002002204D696E004F6666004F6E2056
:20184000004F6666004F6E20004175746F74656D700046616E2073706565640046616E20C6
:201860007370656564004E6F7A7A6C65004E6F7A7A6C6500436F6E74726F6C0045737465E1
:2018800070732F6D6D004573746570732F6D6D005A73746570732F6D6D005A7374657073C4
:2018A0002F6D6D005973746570732F6D6D005973746570732F6D6D005873746570732F6DDA
:2018C0006D005873746570732F6D6D00412D7265747261637400412D726574726163740045
:2018E000416D6178206500416D6178206500416D6178207A00416D6178207A00416D617807
:20190000207900416D6178207900416D6178207800416D61782078005654726176206D69E7
:201920006E005654726176206D696E00566D696E00566D696E00566D6178206500566D6169
:2019400078206500566D6178207A00566D6178207A00566D6178207900566D6178207900B4
:20196000566D6178207800566D617820780056652D6A65726B0056652D6A65726B00567A07
:201980002D6A65726B00567A2D6A65726B005678792D6A65726B005678792D6A65726B0085
:2019A0004175746F4C766C207370656564004175746F4C766C207370656564005A2D4F66FB
:2019C00066736574005A2D4F6666736574004D6178205A2D4F6666736574004D6178205A93
:2019E0002D4F6666736574004D696E205A2D4F6666736574004D696E205A2D4F6666736563
:201A00007400416363656C00416363656C00436F6E74726F6C00526573746F726520466116
:201A2000696C73616665004C6F6164206D656D6F72790053746F7265206D656D6F72790033
:201A40004D6F74696F6E0054656D7065726174757265004D61696E005A2D4F66667365740F
:201A6000005A2D4F666673657400476F746F205A65726F00473239004175746F204C65768D
:201A8000656C004D61696E004D383420582059205A2045004D3234004D3233202573000545
:201AA0002E2E004D61696E004E6F2043617264005072696E742066726F6D2053440053748F
:201AC0006F70205072696E7400526573756D65205072696E74005061757365205072696EA5
:201AE000740053657474696E67205A204F666673657400436F6E74726F6C005072657061BA
:201B000072650054756E6500496E666F2073637265656E0000000A0B02090C0D0E080703CD
:201B20000401000000000000000000000000000000000000000000000000000000000000A0
:201B40001211100000000000000000000000000000000000000000000000010210202008F7
:201B60000810204010204080020102010804020101020408102040808040201008040201EA
:201B80008004020180402010080402010804020101020408102040800102040810204080B2
:201BA00005050505070508080808020202020A0A080804040404010101010101010103039B
:201BC000030303030303040707070C0C0C0C0C0C0C0C0202020206060606060606060B0B2C
:201BE0000B0B0B0B0B0B00002200250028002B002E003100340002010000050108010B0158
:201C000000002100240027002A002D003000330001010000040107010A01024E414E494E0E
:201C2000495459494E46CDCCCC3D0AD7233C17B7D13877CC2B329595E6241FB14F0A00001B
:201C400020410000C84200401C4620BCBE4CCA1B0E5AAEC59D74803DCDA0843D11241FBEC3
:201C6000CFEFD1E2DEBFCDBF00E00CBF14E0A0E0B2E0E6E2F5E801E00BBF02C007900D92D1
:201C8000A835B107D9F722E1A8E5B4E001C01D92A536B207E1F71CE1CAE5DCE100E006C0D0
:201CA00022970109FE010BBF0E944ABCC635D10780E00807A9F70E943DB70C9482C20C94F4
:201CC0000000EF92FF920F931F93CF93DF931F92CDB7DEB78C017B01460FF70161917F0138
:201CE000F8018081918149830E94CBC1F8018081918101969183808349814E11EECF0F909F
:201D0000DF91CF911F910F91FF90EF900895EF92FF920F931F93CF93DF931F92CDB7DEB7F4
:201D20008C017B01460FF8018081918149830E94C3C1F70181937F01F80180819181019618
:201D40009183808349814E11EECF0F90DF91CF911F910F91FF90EF9008950F931F93CF9366
:201D6000DF93CDB7DEB72C970FB6F894DEBF0FBECDBF80E390E3A0E3B0E08D839E83AF8382
:201D8000B88704E610E01C870B8744E0BE016B5F7F4FCE010B9695DF40E16EE071E1CE0106
:201DA0000B968FDF40E16EE171E1CE010B9689DF40E16EEF70E1CE010B9683DF44E066EF60
:201DC00070E1CE010B967DDF44E061E677E0CE010B9677DF44E069E677E0CE010B9671DFD4
:201DE00044E065E677E0CE010B966BDF44E06DE577E0CE010B9665DF44EC69E976E0CE013B
:201E00000B965FDF44E062EF70E1CE010B9659DF44E06AEF70E1CE010B9653DF44E062EE91
:201E200070E1CE010B964DDF44E06EE271E1CE010B9647DF44E06EEE70E1CE010B9641DFF8
:201E400044E06AEE70E1CE010B963BDF44E066EE70E1CE010B9635DF4CE068E977E0CE013B
:201E60000B962FDF42E069E272E1CE010B9629DF42E067E272E1CE010B9623DF42E065E2E2
:201E800072E1CE010B961DDF42E063E272E1CE010B9617DF42E061E272E1CE010B9611DF4B
:201EA00042E06FE172E1CE010B960BDF44E06AE572E0CE010B9605DF44E066E572E0CE015A
:201EC0000B96FFDE44E062E572E0CE010B96F9DE80E290E09A87898742E0BE01675F7F4F08
:201EE000CE010B96EEDE86E591E3A1E3B0E089839A83AB83BC831C870B8744E0BE016F5F37
:201F00007F4FCE010B96DDDEEFEAF3E08491882341F09091C00095FFFCCF8093C60031964B
:201F2000F5CFEFE9F3E08491882341F09091C00095FFFCCF8093C6003196F5CF8091C000CC
:201F400085FFFCCF8AE08093C6002C960FB6F894DEBF0FBECDBFDF91CF911F910F91089529
:201F6000CF93DF93CFEAD3E0FE018491882341F09091C00095FFFCCF8093C6003196F5CF8D
:201F8000EFE8F3E08491882341F09091C00095FFFCCF8093C6003196F5CF8091C00085FFAD
:201FA000FCCF8AE08093C600FE018491EFEAF3E0882349F09091C00095FFFCCF8093C60056
:201FC00031968491F5CF40910E1150910F11609110117091111187E893E00E948C18409142
:201FE000121150911311609114117091151184E893E00E948C184091161150911711609165
:2020000018117091191181E893E00E948C1840911A1150911B1160911C1170911D118EE77F
:2020200093E00E948C188091C00085FFFCCF8AE08093C600FE018491EFEAF3E0882349F0E0
:202040009091C00095FFFCCF8093C60031968491F5CFEBE6F3E08491882341F09091C00051
:2020600095FFFCCF8093C6003196F5CF8091C00085FFFCCF8AE08093C6000E946E1B8091FE
:20208000C00085FFFCCF8AE08093C600FE018491EFEAF3E0882349F09091C00095FFFCCF0A
:2020A0008093C60031968491F5CFE1E5F3E08491882341F09091C00095FFFCCF8093C60004
:2020C0003196F5CF8091C00085FFFCCF8AE08093C600FE018491EFEAF3E0882349F090914D
:2020E000C00095FFFCCF8093C60031968491F5CF40911E1150911F116091201170912111E2
:2021000088E493E00E948C184091221150912311609124117091251185E493E0FDD74091A3
:20212000261150912711609128117091291182E493E0F2D740912A1150912B1160912C11F1
:2021400070912D118FE393E0E7D78091C00085FFFCCF8AE08093C600FE018491EFEAF3E07A
:20216000882349F09091C00095FFFCCF8093C60031968491F5CFE1E2F3E08491882341F03B
:202180009091C00095FFFCCF8093C6003196F5CF8091C00085FFFCCF8AE08093C600FE0139
:2021A0008491EFEAF3E0882349F09091C00095FFFCCF8093C60031968491F5CF4091FE10E2
:2021C0005091FF10609100117091011188E193E0B4D74091021150910311609104117091B3
:2021E000051185E193E0A9D74091061150910711609108117091091182E193E09ED740914E
:202200000A1150910B1160910C1170910D118FE093E093D78091C00085FFFCCF8AE0809390
:20222000C600FE018491EFEAF3E0882349F09091C00095FFFCCF8093C60031968491F5CF7B
:20224000EAEDF2E08491882341F09091C00095FFFCCF8093C6003196F5CF8091C00085FFEB
:20226000FCCF8AE08093C600FE018491EFEAF3E0882349F09091C00095FFFCCF8093C60093
:2022800031968491F5CF4091F6105091F7106091F8107091F91081ED92E03ED74091F21014
:2022A0005091F3106091F4107091F5108EEC92E033D78091C00085FFFCCF8AE08093C600E6
:2022C000FE018491EFEAF3E0882349F09091C00095FFFCCF8093C60031968491F5CFEBE1D5
:2022E000F2E08491882341F09091C00095FFFCCF8093C6003196F5CF8091C00085FFFCCF57
:202300008AE08093C600FE018491EFEAF3E0882349F09091C00095FFFCCF8093C6003196F6
:202320008491F5CF4091FA105091FB106091FC107091FD1082E192E0EFD64091E2105091B4
:20234000E3106091E4107091E5108FE092E0E4D640912E1150912F1160913011709131116E
:202360008CE092E0EAD64091EE105091EF106091F0107091F11089E092E0CED64091EA10D3
:202380005091EB106091EC107091ED1086E092E0C3D64091E6105091E7106091E81070917C
:2023A000E91083E092E0B8D68091C00085FFFCCF8AE08093C600FE018491EFEAF3E08823F3
:2023C00049F09091C00095FFFCCF8093C60031968491F5CFE1EFF1E08491882341F0909158
:2023E000C00095FFFCCF8093C6003196F5CF8091C00085FFFCCF8AE08093C600FE018491E3
:20240000EFEAF3E0882349F09091C00095FFFCCF8093C60031968491F5CF40919807509122
:20242000990760919A0770919B0788EE91E074D640919C0750919D0760919E0770919F0760
:2024400085EE91E069D64091A0075091A1076091A2077091A30782EE91E05ED68091C0002D
:2024600085FFFCCF8AE08093C600FE018491EFEAF3E0882349F09091C00095FFFCCF8093D3
:20248000C60031968491F5CFE4EDF1E08491882341F09091C00095FFFCCF8093C600319663
:2024A000F5CF8091C00085FFFCCF8AE08093C600FE01C491EFEAF3E0CC2349F08091C000FC
:2024C00085FFFCCFC093C6003196C491F5CF40915A0250915B0260915C0270915D028AEC24
:2024E00091E01AD6609156027091570280915802909159020E94567BAB01BC0187EC91E031
:202500000BD6609152027091530280915402909155020E94627BAB01BC0184EC91E0FCD5C6
:202520008091C00085FFFCCF8AE08093C600DF91CF910895AF92BF92CF92DF92EF92FF9255
:202540000F931F93CF93DF93CDB7DEB7E0970FB6F894DEBF0FBECDBF80E1E7E7F2E0DE019C
:20256000919601900D928A95E1F780E1E7E8F2E0DE01519601900D928A95E1F780E1E7E9ED
:20258000F2E0DE01119601900D928A95E1F70E94BA1B6E0181E2C80ED11C8EE0E82E81E1CA
:2025A000F82E8E010F5E1F4F6EE171E1AE014F5F5F4F9EEFA92E90E1B92E20E030E0F6011C
:2025C00081919191A191B1916F01F70181939193A193B1937F01F80181919191A191B1911A
:2025E0008F01FB0181939193A193B193BF01FA0181919191A191B191AF01F501819391935E
:20260000A193B1935F012F5F3F4F24303105B9F60E94466980E090EAACE0B6E48093F61023
:202620009093F710A093F810B093F9108093F2109093F310A093F410B093F5101092FA1083
:202640001092FB101092FC101092FD1080E29EE4A0E0B0E080932E1190932F11A093301153
:20266000B09331111092E2101092E3101092E4101092E51080E090E0A0EAB1E48093EE107F
:202680009093EF10A093F010B093F1108093EA109093EB10A093EC10B093ED1080E090E037
:2026A000A0EAB0E48093E6109093E710A093E810B093E9101092A0071092A1071092A20794
:2026C0001092A30710929C0710929D0710929E0710929F07109298071092990710929A07CE
:2026E00010929B0788EC90E090932A128093291286E490E090932812809327128FEF90E094
:20270000909326128093251220EF30E0309324122093231224E630E030932212209321121D
:202720009093201280931F128CEE91E5A4E8B1E480935A0290935B02A0935C02B0935D02CD
:2027400066E676E686EA9FE30E94507B6093560270935702809358029093590261E77DE338
:2027600082E592E40E945C7B609352027093530280935402909355020E94F47280E090E0A9
:20278000A0E8BFE380934E0290934F02A0935002B0935102EFEAF3E08491882341F090915F
:2027A000C00095FFFCCF8093C6003196F5CFE8E8F1E08491882341F09091C00095FFFCCFC4
:2027C0008093C6003196F5CF8091C00085FFFCCF8AE08093C600E0960FB6F894DEBF0FBE01
:2027E000CDBFDF91CF911F910F91FF90EF90DF90CF90BF90AF900895CF93DF93CDB7DEB739
:202800002C970FB6F894DEBF0FBECDBF84E690E09C878B8786E591E3A1E3B0E089839A8383
:20282000AB83BC8344E0BE016B5F7F4FCE010B966EDA43E050E0BE016B5F7F4FCE010196E8
:202840000E948ABF892B09F0C9C040E16EE071E1CE010B965CDA40E16EE171E1CE010B96BE
:2028600056DA40E16EEF70E1CE010B9650DA0E94466944E066EF70E1CE010B9648DA44E0EE
:2028800061E677E0CE010B9642DA44E069E677E0CE010B963CDA44E065E677E0CE010B9688
:2028A00036DA44E06DE577E0CE010B9630DA44EC69E976E0CE010B962ADA44E062EF70E1AF
:2028C000CE010B9624DA44E06AEF70E1CE010B961EDA44E062EE70E1CE010B9618DA44E009
:2028E0006EE271E1CE010B9612DA44E06EEE70E1CE010B960CDA44E06AEE70E1CE010B9676
:2029000006DA44E066EE70E1CE010B9600DA4CE068E977E0CE010B96FAD942E069E272E1ED
:20292000CE010B96F4D942E067E272E1CE010B96EED942E065E272E1CE010B96E8D942E056
:2029400063E272E1CE010B96E2D942E061E272E1CE010B96DCD942E06FE172E1CE010B96A2
:20296000D6D944E06AE572E0CE010B96D0D944E066E572E0CE010B96CAD944E062E572E039
:20298000CE010B96C4D942E0BE01675F7F4FCE010B96BDD90E94F472EFEAF3E0849188233B
:2029A00041F09091C00095FFFCCF8093C6003196F5CFEAEAF1E08491882341F09091C000CB
:2029C00095FFFCCF8093C6003196F5CF8091C00085FFFCCF8AE08093C60001C0ABDDC0DAEE
:2029E0002C960FB6F894DEBF0FBECDBFDF91CF9108951F920F920FB60F9211240BB60F9212
:202A00002F933F934F935F936F938F939F93EF93FF936091C6002091D9043091DA04C90136
:202A200001968F7799274091DB045091DC048417950741F0F901E75AFB4F60839093DA04F7
:202A40008093D904FF91EF919F918F916F915F914F913F912F910F900BBE0F900FBE0F9053
:202A60001F9018959A01AB01211581EE38074105510549F182E08093C00060E079E08DE3BB
:202A800090E00E9418BC2150310941095109CA01B90122E030E040E050E00E9418BC3093E1
:202AA000C5002093C4008091C10080618093C1008091C10088608093C1008091C10080680B
:202AC0008093C10008951092C00020E130E0E7CF2091DB043091DC048091D9049091DA043E
:202AE0008217930771F0F901E75AFB4F80812F5F3F4F2F7733273093DC042093DB0490E0FB
:202B000008958FEF9FEF08958091DB049091DC049093DA048093D90408954F925F926F921D
:202B20007F928F929F92AF92BF92CF92DF92EF92FF920F931F93CF93DF93CDB7DEB7A09744
:202B40000FB6F894DEBF0FBECDBF5C014115510561057105E9F420E030E040E350E060E0C9
:202B600070E0A0960FB6F894DEBF0FBECDBFDF91CF911F910F91FF90EF90DF90CF90BF903D
:202B8000AF909F908F907F906F905F904F905BC08E010F5F1F4FC12CD12C76014801422E2C
:202BA000512C612C712C8FEFC81AD80AE80AF80ACB01BA01A30192010E94F6BBCA01F80163
:202BC00061938F01A901BC01411551056105710551F7F1E0CF1AD108E108F108F401EC0DD7
:202BE000FD1D80818A3010F440E301C047E3480F552747FD5095652F752F20E030E0C501E4
:202C000022D081E0C81AD108E108F108EFEFCE16DE06EE06FE0611F7A0960FB6F894DEBFFA
:202C20000FBECDBFDF91CF911F910F91FF90EF90DF90CF90BF90AF909F908F907F906F9055
:202C40005F904F9008952115310539F48091C00085FFFCCF4093C60008952A30310509F48D
:202C60001CC05BCFCF93DF93EC0120E030E04DE050E060E070E0E7DF20E030E04AE050E060
:202C800060E070E0CE01DF91CF91DDCF9A01AB01662757FD6095762FD6CFCF92DF92EF929F
:202CA000FF92CF93DF93EC016A017B0177FF0FC020E030E04DE250E060E070E0C4DFF09470
:202CC000E094D094C094C11CD11CE11CF11C2AE0B701A601CE01DF91CF91FF90EF90DF906F
:202CE000CF901BCF2115310539F48091C00085FFFCCF4093C600089510CF9A01462F50E07D
:202D000060E070E0EFCFCF93DF93EC019A01AB0160E070E0E7DFCE01DF91CF91A3CF8F92D5
:202D20009F92AF92BF92CF92DF92EF92FF921F93CF93DF93EC016A017B01122F20E030E041
:202D4000A901C701B6010E9425B887FF0CC020E030E04DE250E060E070E0CE0174DFF7FA67
:202D6000F094F7F8F094B12C60E070E080E09FE3B11641F020E030E040E251E40E942CB828
:202D8000B394F6CF9B01AC01C701B6010E944CB76B017C010E9499B84B015C010E94C5B816
:202DA0009B01AC01C701B6010E944BB76B017C012AE0B501A401CE01B0DE112361F0EDE4A6
:202DC000F4E08191882339F09091C00095FFFCCF8093C600F6CF112319F120E030E040E2EB
:202DE00051E4C701B6010E94FABA6B017C010E9494B84B01AA2497FCA094BA2CB501A401D0
:202E0000CE014BDFC501B4010E94C7B89B01AC01C701B6010E944BB76B017C011150DBCFBD
:202E2000DF91CF911F91FF90EF90DF90CF90BF90AF909F908F90089572CFFC016591759183
:202E40008591949108952F923F924F925F926F927F928F929F92AF92BF92CF92DF92EF92ED
:202E6000FF920F931F93CF93DF9300D01F92CDB7DEB7FC01E255F74F14919C01220F331FC0
:202E8000220F331F3C832B832C55384F4901F901108211821282138220EB37E04CEA57E019
:202EA00068EA77E084EA97E00E9474688B819C818354974FC2DF6B017C01612F772767FD04
:202EC0007095872F972F0E94C7B82B013C012B813C812758384F590120E030E040EC5FE3A0
:202EE000C701B6010E94FABAA30192010E94FABAF50160837183828393832B813C81285D9A
:202F00003D4F3A832983F901608171818281938160930702709308028093090290930A0282
:202F200020E030E040E752E40E942CB827E9C22E27E0D22E7B018C0125E837E041E857E00A
:202F40006DE777E089E797E00E94315F0E94717180E00E94306AF40110821182128213824A
:202F600020EB37E04CEA57E068EA77E084EA97E00E9474682B813C812F54374F1901C90160
:202F80005CDF9058A30192010E94FABAF501608371838283938320E030E040E752E460913B
:202FA0000702709108028091090290910A020E942CB87B018C0125E837E041E857E06DE74D
:202FC00077E089E797E00E94315F0E94717181E00E94306AC10131DF9B01AC010E944CB7A0
:202FE000A30192010E94FABAF501608371838283938320E030E040E251E4E981FA8160812F
:203000007181828193810E942CB860930702709308028093090290930A0220E030E040E794
:2030200052E40E942CB87B018C0125E837E041E857E06DE777E089E797E00E94315F0E94E1
:2030400071718B819C818753974FF7DE0B811C810856184FF80120813181428153810E945D
:203060004CB7F40160837183828393838B819C818F51974FE2DE2B813C81285E3D4F7901C2
:20308000F80120813181428153810E944CB7F70160837183828393838B819C818B52974FD2
:2030A000CCDE2B813C81245F3D4F7901F80120813181428153810E944CB7F701608371831D
:2030C00082839383F40180819181A281B381F50180839183A283B3831092070210920802B7
:2030E0001092090210920A020F900F900F900F90DF91CF911F910F91FF90EF90DF90CF90FD
:20310000BF90AF909F908F907F906F905F904F903F902F900C94296AFC012491222341F00E
:203120003091C00035FFFCCF2093C6000196F4CF22E030E088E594E07FCEFC012491222305
:2031400041F03091C00035FFFCCF2093C6000196F4CF2AE030E088E594E0C4CDCF93DF938B
:203160001F921F92CDB7DEB780915F12909160129E012F5F3F4F009719F42556324102C0B0
:20318000281B390B3A83298389819A810F900F90DF91CF9108952091FA043091FB042430AC
:2031A00031050CF06AC04091FC045091FD0460E6649F9001659F300D1124BC01C9018C5F3E
:2031C0009A4F0E9483BFEDEEF8E08491882341F09091C00095FFFCCF8093C6003196F5CFDA
:2031E000E3EAF8E08491882341F09091C00095FFFCCF8093C6003196F5CF8091FC04909163
:20320000FD0420E6289FF001299FF00D1124EC5FFA4F8191882339F09091C00095FFFCCF3B
:203220008093C600F6CFE1EAF8E08491882341F09091C00095FFFCCF8093C6003196F5CFB8
:203240008091C00085FFFCCF8AE08093C6008091FC049091FD04019664E070E00E94E3BB6D
:203260009093FD048093FC048091FA049091FB0401969093FB048093FA0408952091FA04D2
:203280003091FB04243031050CF06AC04091FC045091FD0460E6649F9001659F300D1124BB
:2032A000BC01C9018C5F9A4F0E9406BFEDEEF8E08491882341F09091C00095FFFCCF809355
:2032C000C6003196F5CFE6E9F8E08491882341F09091C00095FFFCCF8093C6003196F5CF61
:2032E0008091FC049091FD0420E6289FF001299FF00D1124EC5FFA4F8191882339F0909148
:20330000C00095FFFCCF8093C600F6CFE4E9F8E08491882341F09091C00095FFFCCF809307
:20332000C6003196F5CF8091C00085FFFCCF8AE08093C6008091FC049091FD04019664E0CB
:2033400070E00E94E3BB9093FD048093FC048091FA049091FB0401969093FB048093FA04AD
:20336000089560E089E20E94F5B2A09A08956D9A75980895269A2E980895F3DFFBDF40E93C
:2033800050ED63E070E088E594E06CDBEEE8F8E08491882341F09091C00095FFFCCF809343
:2033A000C6003196F5CF8091C00085FFFCCF8AE08093C6008DEE98E0FC012491222341F03E
:2033C0003091C00035FFFCCF2093C6003196F5CF24B720FF14C0E6E8F8E03491332341F0A9
:2033E0004091C00045FFFCCF3093C6003196F5CF3091C00035FFFCCF3AE03093C60021FFD6
:2034000014C0E6E7F8E03491332341F04091C00045FFFCCF3093C6003196F5CF3091C000B2
:2034200035FFFCCF3AE03093C60022FF14C0E5E6F8E03491332341F04091C00045FFFCCF66
:203440003093C6003196F5CF3091C00035FFFCCF3AE03093C60023FF14C0E5E5F8E03491D8
:20346000332341F04091C00045FFFCCF3093C6003196F5CF3091C00035FFFCCF3AE03093B4
:20348000C60025FF14C0E5E4F8E02491222341F03091C00035FFFCCF2093C6003196F5CF1E
:2034A0002091C00025FFFCCF2AE02093C60014BEEDE3F8E02491222341F03091C00035FFCF
:2034C000FCCF2093C6003196F5CFE7E3F8E02491222341F03091C00035FFFCCF2093C60057
:2034E0003196F5CF2091C00025FFFCCF2AE02093C600FC012491EDEEF8E0222349F03091BA
:20350000C00035FFFCCF2093C60031962491F5CFE7E2F8E02491222341F03091C00035FFB2
:20352000FCCF2093C6003196F5CFE2E1F8E02491222341F03091C00035FFFCCF2093C600FD
:203540003196F5CFE6E0F8E02491222341F03091C00035FFFCCF2093C6003196F5CFEDEEB8
:20356000F7E02491222341F03091C00035FFFCCF2093C6003196F5CF2091C00025FFFCCF65
:203580002AE02093C600E2EEF7E02491222341F03091C00035FFFCCF2093C6003196F5CF52
:2035A000E6EDF7E02491222341F03091C00035FFFCCF2093C6003196F5CF2091C00025FF1D
:2035C000FCCF2AE02093C600FC018491EDEEF8E0882349F09091C00095FFFCCF8093C600DB
:2035E00031968491F5CFE7ECF7E08491882341F09091C00095FFFCCF8093C6003196F5CFEC
:20360000ADDD4AE050E0BC0188E594E03FDBE0EBF7E08491882341F09091C00095FFFCCF3B
:203620008093C6003196F5CF4AE050E060ED74E088E594E02BDB8091C00085FFFCCF8AE0BA
:203640008093C60010920005109201051092020510920305D1D80E94B7740E94CB5D0E940D
:20366000F27085DE0E943A8EFFEF23ED80E3F15020408040E1F700C0000008958091F4041B
:203680009091F50460E070E001960C945DBC8091F4049091F5044AE050E060E070E001968C
:2036A0000C94C5BD682F772767FD70952091FE043091FF0440E6429FC001439F900D112457
:2036C0008C5F9A4F0E9478BF9093F5048093F40421E0892B09F420E0822F0895BF92CF9264
:2036E000DF92EF92FF920F931F93CF93DF93C0E0D0E03EE3C32E36E0D32E4AE0B42E00E0BA
:2037000010E0CE018B55994F7C01F701E00FF11F448555856685778523E030E088E594E030
:203720008BDBF6018491EEE3F6E0882349F09091C00095FFFCCF8093C60031968491F5CFD3
:20374000045E1F4F043C110501F78091C00085FFFCCFB092C6002497C43EFFEFDF0779F623
:20376000DF91CF911F910F91FF90EF90DF90CF90BF9008951092690710926A0710926B0728
:2037800010926C0780E090E0A8ECB2E48093650790936607A0936707B093680780E090E0E8
:2037A000A0E0BFE38093610790936207A0936307B093640780E090E0A8E4B2E480935D072C
:2037C00090935E07A0935F07B093600780E090E020E030E0AC014B55594FFA01E20FF31F4B
:2037E0001486158616861786245E3F4F243C3105A1F70497843E2FEF920751F708950E9482
:203800000AB16093F0047093F1048093F2049093F304E091FE04F091FF04E050FB4F808179
:20382000811114C0EDE5F4E08491882341F09091C00095FFFCCF8093C6003196F5CF8091D6
:20384000C00085FFFCCF8AE08093C600089588E594E05AD9E0E6F4E08491882341F09091B9
:20386000C00095FFFCCF8093C6003196F5CF4091890650918A0660918B0670918C064F5F31
:203880005F4F6F4F7F4F2AE030E088E594E0DBD98091C00085FFFCCF8AE08093C600AFCF5E
:2038A0002F923F924F925F926F927F928F929F92AF92BF92CF92DF92EF92FF920F931F9376
:2038C000CF93DF93CDB7DEB76E970FB6F894DEBF0FBECDBFE0E69E2E04E010E0F3E7EF2E52
:2038E000F6E0FF2EAAE08A2EB9EECB2EB6E0DB2E772473948091D9049091DA042091DB0425
:203900003091DC04821B930B8F779927892B09F424C28091FA049091FB0404970CF01DC2C9
:2039200088E594E0D5D88093F9042091F7043091F8048A3061F08D3051F08A3321F4909184
:20394000F604992321F02F3531050CF428C12115310509F442C18091FC049091FD04989E48
:203960005001999EB00C1124F501E20FF31FEC5FFA4F10822091F60421110CC1FC01E050D8
:20398000FB4F108295012C5F3A4F19016EE470E0C9010E9478BF0097E9F19093F5048093A2
:2039A000F404821993098A0D9B1D4AE050E060E070E08B5F9A4F0E94C5BD60938D0670931F
:2039C0008E0680938F06909390062091890630918A0640918B0650918C062F5F3F4F4F4FD2
:2039E0005F4FA090FC04B090FD04621773078407950709F4F5C09A9CC0019B9C900D1124DC
:203A000062E977E08C5F9A4F0E943DBF892B09F0E7C076C16AE270E0C1010E9478BF892B1C
:203A200009F443C0E3EFF8E08491882341F09091C00095FFFCCF8093C6003196F5CFECEE6D
:203A4000F6E08491882341F09091C00095FFFCCF8093C6003196F5CF4091890650918A062A
:203A600060918B0670918C062AE030E088E594E0EAD88091C00085FFFCCF8AE08093C60011
:203A80001092F8041092F704BBC280918D0690918E06A0918F06B0919006809389069093B3
:203AA0008A06A0938B06B0938C068091FC049091FD04989E5001999EB00C1124A5014C5FAA
:203AC0005A4F1A0167E470E0CA010E9478BF009709F44BC09093F5048093F40482199309E6
:203AE0008A0D9B1D60E070E08B5F9A4F0E945DBC0E9494B86430710508F037C08091DE047F
:203B000081111AC08091CA0781112FC0F6018491E9EEF6E0882349F09091C00095FFFCCFF9
:203B20008093C60031968491F5CF8091C00085FFFCCF8092C60019C0F7018491E3E7F6E08E
:203B4000882349F09091C00095FFFCCF8093C60031968491F5CF8091C00085FFFCCF809296
:203B6000C60089E696E00E94CA8D8091FC049091FD040196B8010E94E3BB9093FD048093A7
:203B8000FC048091FA049091FB0401969093FB048093FA041092F8041092F704ABCE8B33BA
:203BA00011F47092F6049091F6049111A3CE4091FC045091FD04B9016F5F7F4F7093F804CE
:203BC0006093F704949EF001959EF00D1124E20FF31FEC5FFA4F80838DCE1092F60410C20C
:203BE0009A9C10019B9C300C1124C1018C5F9A4F5C016AE270E00E9478BF009789F5E3EF87
:203C0000F8E08491882341F09091C00095FFFCCF8093C6003196F5CFE6E1F7E084918823D9
:203C200041F09091C00095FFFCCF8093C6003196F5CF4091890650918A0660918B0670915B
:203C40008C062AE030E088E594E00E9423168091C00085FFFCCF8AE08093C600F8DD10CFE5
:203C600020E0612CF101E20FF11DEC5FFA4F30813A3219F02F5F6326F5CF9093F504809302
:203C8000F4048A199B09820D931D60E070E08B5F9A4F0E945DBC0E9494B8262D30E02617FA
:203CA000370709F4F2CEE3EFF8E08491882341F09091C00095FFFCCF8093C6003196F5CFCA
:203CC000E0E4F7E08491882341F09091C00095FFFCCF8093C6003196F5CF40918906509173
:203CE0008A0660918B0670918C062AE030E088E594E00E9423168091C00085FFFCCFABCFAF
:203D0000E3EFF8E08491882341F09091C00095FFFCCF8093C6003196F5CFEFE5F7E08491A4
:203D2000882341F09091C00095FFFCCF8093C6003196F5CF4091890650918A0660918B06B0
:203D400070918C062AE030E088E594E00E9423168091C00085FFFCCF7ECF8091CC078823FE
:203D600009F44EC18091F7049091F804892B09F047C158EE452E53E0552E612C712C6CE371
:203D8000C62ED12CE12CF12C72E4272E76E0372E8E010F5F1F4F4091BB095091BC0960910B
:203DA000BD097091BE098091B3099091B409A091B509B091B609481759076A077B0708F031
:203DC0001FC18091FA049091FB0404970CF018C18091A0099091A109A091A209B091A30916
:203DE0008093BB099093BC09A093BD09B093BE0988E999E00E944742482F8093F9048A30AB
:203E0000A1F04D3091F04A3321F42091F604222361F02091F7043091F8042F3531052CF41D
:203E20008F3FFFEF9F0709F0CBC04091BB095091BC096091BD097091BE098091B3099091F4
:203E4000B409A091B509B091B609481759076A077B0708F47FC0E6E5F6E08491882341F037
:203E60009091C00095FFFCCF8093C6003196F5CF8091C00085FFFCCFFAE0F093C6000E94B9
:203E80000AB16093E0047093E1048093E2049093E3048090E4049090E504A090E604B0904A
:203EA000E704681979098A099B09A30192010E94F6BB49015A01CA01B901A70196010E9448
:203EC000F6BBCA01B901A70196010E94F6BB7F936F93C501B40120E13EE040E050E00E947A
:203EE000F6BB3F932F933F922F921F930F930E94A7BFEDEEF8E084910FB6F894DEBF0FBE0C
:203F0000CDBF882349F09091C00095FFFCCF8093C60031968491F5CFF8018191882339F099
:203F20009091C00095FFFCCF8093C600F6CF8091C00085FFFCCF3AE03093C600C8010E9475
:203F4000BB8D8AEC97E00E94CB5661E08AEC97E00E9433542091F7043091F804211531053D
:203F600009F43BCE8091FC049091FD0440E6489FF001499FF00D1124E20FF31FEC5FFA4F59
:203F80001082FC01E050FB4F51E050832091FA043091FB042F5F3F4F3093FB042093FA0416
:203FA000019664E070E00E94E3BB9093FD048093FC041092F6041092F8041092F704EBCECF
:203FC0004B3319F461E06093F6044091F6044111E2CE4091FC045091FD04B9016F5F7F4F52
:203FE0007093F8046093F70460E6649FF001659FF00D1124E20FF31FEC5FFA4F8083CBCE31
:204000006E960FB6F894DEBF0FBECDBFDF91CF911F910F91FF90EF90DF90CF90BF90AF90CB
:204020009F908F907F906F905F904F903F902F9008958F929F92AF92BF92CF92DF92EF92F4
:20404000FF920F931F93CF93DF93CDEDEC2EC3E0FC2E04EA17E0C9E7D7E086EBC82E87E0EC
:20406000D82EF70181917F011DDB882311F106DB4B015C01F6018081811103C060918406B9
:2040800001C061E070E080E090E00E94C7B8F80120813181428153810E94FABA9B01AC015B
:2040A000C501B4010E944CB7688379838A839B8309C0F80180819181A281B381888399837B
:2040C000AA83BB830C5F1F4F2496FFEFCF1ADF0A81EEE81683E0F80621F686E4E3DA88236B
:2040E000D1F0CCDA6B017C016093950670939606809397069093980620E030E0A9010E9476
:2041000028BA181644F4C0920702D0920802E0920902F0920A02DF91CF911F910F91FF90D6
:20412000EF90DF90CF90BF90AF909F908F90089580DF89E4B7DA882351F0A0DA60936D078F
:2041400070936E0780936F079093700708C010926D0710926E0710926F07109270078AE430
:20416000A1DA882351F08ADA60937107709372078093730790937407089510927107109209
:20418000720710927307109274070895CF92DF92EF92FF92CF93DF93EC01C0901802D09061
:2041A0001902E0901A02F0901B02A7019601688179818A819B810E9425B887FF04C0C8825F
:2041C000D982EA82FB82C0901C02D0901D02E0901E02F0901F02A70196016C817D818E8144
:2041E0009F810E9425B887FF04C0CC82DD82EE82FF82C0902002D0902102E0902202F0902F
:204200002302A7019601688579858A859B850E9425B887FF04C0C886D986EA86FB86C09069
:204220000C02D0900D02E0900E02F0900F02A7019601688179818A819B810E9428BA1816F5
:2042400024F4C882D982EA82FB82C0901002D0901102E0901202F0901302A70196016C819E
:204260007D818E819F810E9428BA181624F4CC82DD82EE82FF82C0901402D0901502E0905C
:204280001602F0901702A7019601688579858A859B850E9428BA181624F4C886D986EA862D
:2042A000FB86DF91CF91FF90EF90DF90CF9008954F925F926F927F928F929F92AF92BF926C
:2042C000CF92DF92EF92FF92CF93DF93EC01288139814A815B816AE776EB84E793EC0E94F1
:2042E0004BB76B017C012C813D814E815F8166EF78E48DE093EC0E944BB79B01AC010E948D
:20430000FABA4B015C01A7019601C701B6010E94FABA9B01AC0160E878E289E898E40E94B2
:204320004BB7A50194010E944BB70E9467BBC884D984EA84FB84A70196010E944CB760936B
:20434000890770938A0780938B0790938C07288139814A815B816AE776EB84E793E40E949E
:204360004BB79B01AC010E94FABA9B01AC0160E878E289E898E40E944BB7A50194010E9443
:204380004BB70E9467BBA70196010E944CB760938D0770938E0780938F0790939007288148
:2043A00039814A815B8160E070E0CB010E944BB72B013C012C813D814E815F8166EF78E468
:2043C0008DE893E40E944BB74B015C01A3019201C301B2010E94FABA9B01AC0160E878E2B5
:2043E00089E898E40E944BB72B013C01A5019401C501B4010E94FABA9B01AC01C301B201F7
:204400000E944BB70E9467BBA70196010E944CB760939107709392078093930790939407BE
:20442000DF91CF91FF90EF90DF90CF90BF90AF909F908F907F906F905F904F9008952F92BA
:204440003F924F925F926F927F928F929F92AF92BF92CF92DF92EF92FF920F931F93CF9329
:20446000DF938091070290910802A0910902B0910A028093910690939206A0939306B09388
:20448000940680912602909127029093B5078093B40784E690E090932702809326020E944F
:2044A0000AB16093F0047093F1048093F2049093F30481E00E94306A99E7A92E97E0B92EED
:2044C00024EA622E27E0722EF30180819181A281B381F50180839183A283B383CDE7D7E066
:2044E00038EA832E37E0932EF40180819181A281B38188839983AA83BB8341E8442E47E05E
:20450000542E5CEA252E57E0352EF10180819181A281B381F20180839183A283B383809114
:20452000B0079091B107A091B207B091B3078093850790938607A0938707B0938807109282
:204540000702109208021092090210920A02F3011082118212821382F4011082118212825B
:204560001382F101108211821282138220EB37E0A101B401C3010E94746880E090E9AAE345
:20458000B5E4F50180839183A283B38388839983AA83BB83F20180839183A283B3832DE214
:2045A00032EB4DED5FE3609128027091290280912A0290912B020E94FABA6093070270933B
:2045C00008028093090290930A0220E030E040E752E40E942CB8E7E9CE2EE7E0DE2E7B0176
:2045E0008C0125E837E0A201BE01C5010E94315F0E9471710E94296AF50180819181A281CB
:20460000B381F30180839183A283B38388819981AA81BB81F40180839183A283B383F2011C
:2046200080819181A281B381F10180839183A283B38380E090E00E94231781E090E00E948D
:20464000231782E090E00E942317C30131DE20EB37E041E957E06DE877E089E897E00E94E6
:20466000746880E00E94306A8091910690919206A0919306B0919406809307029093080273
:20468000A0930902B0930A028091B4079091B50790932702809326020E940AB16093F00419
:2046A0007093F1048093F2049093F304DF91CF911F910F91FF90EF90DF90CF90BF90AF9055
:2046C0009F908F907F906F905F904F903F902F900C94296A2F923F924F925F926F927F9279
:2046E0008F929F92AF92BF92CF92DF92EF92FF920F931F93CF93DF93CDB7DEB762970FB6F3
:20470000F894DEBF0FBECDBF7C0120E030E048E752E4FC0160817181828193810E942CB8B8
:204720004B015C012EE93FEE4FE350E40E9428BA18164CF45EE9852E5FEE952E5FE3A52E15
:2047400050E4B52E12C02EE93FEE4FE350ECC501B4010E9425B887FF08C04EE9842E4FEE50
:20476000942E4FE3A42E40ECB42E20E030E048E752E4F70164817581868197810E942CB878
:204780006B017C012EE93FEE4FE350E40E9428BA18164CF43EE9C32E3FEED32E3FE3E32E1B
:2047A00030E4F32E12C02EE93FEE4FE350ECC701B6010E9425B887FF08C02EE9C22E2FEED0
:2047C000D22E2FE3E22E20ECF22EC501B4010E9402B90E9494B869837A838B839C83C701E7
:2047E000B6010E9402B90E9494B82B013C0129813A81B901882777FD8095982F0E94C7B80F
:204800009B01AC01C501B4010E944BB769877A878B879C87B201882777FD8095982F0E94B6
:20482000C7B89B01AC01C701B6010E944BB76D837E838F839887A980BA8033E0A30EB11C77
:20484000120143E0240E311CC0906107D0906207E0906307F090640782010C5F1F4F8981F7
:204860009A8104969A8389832D813E814F81588560E070E080E89FE30E944BB72B013C01B9
:2048800029853A854B855C8560E070E080E89FE30E944BB76D877E878F87988B27E02A9DDC
:2048A000F0012B9DF00D1124FA8BE98BE20DF31DEE0FFF1FEE0FFF1FE756F94F2081318107
:2048C00042815381C701B6010E944CB79B01AC01C301B2010E94FABA4B015C01E989FA8969
:2048E000E00FF11FEE0FFF1FEE0FFF1FE756F94F2081318142815381C701B6010E944CB7F0
:204900009B01AC016D817E818F8198850E94FABA9B01AC01C501B4010E944CB79B01AC012C
:204920006D857E858F8598890E94FABA4B015C0127E0E981FA812E9FC0012F9F900D112434
:204940009E878D87FC01E20DF31DEE0FFF1FEE0FFF1FE756F94F2081318142815381C701B5
:20496000B6010E944CB79B01AC01C301B2010E94FABA2B013C01ED85FE85E00FF11FEE0F6B
:20498000FF1FEE0FFF1FE756F94F2081318142815381C701B6010E944CB79B01AC016D8114
:2049A0007E818F8198850E94FABA9B01AC01C301B2010E944CB79B01AC0169857A858B85CA
:2049C0009C850E94FABA9B01AC01C501B4010E944CB76B017C019B01AC0160918907709143
:2049E0008A0780918B0790918C070E944CB76093890770938A0780938B0790938C07A70110
:204A0000960160918D0770918E0780918F07909190070E944CB760938D0770938E078093AE
:204A20008F0790939007A7019601609191077091920780919307909194070E944CB76093C5
:204A4000910770939207809393079093940762960FB6F894DEBF0FBECDBFDF91CF911F91F8
:204A60000F91FF90EF90DF90CF90BF90AF909F908F907F906F905F904F903F902F900895D7
:204A8000CF92DF92EF92FF920F931F930E940AB16093F0047093F1048093F2049093F3047F
:204AA00089E797E005DC6091260270912702882777FD8095982F0E94C7B820910702309150
:204AC00008024091090250910A020E94FABA20E030E040E752E40E942CB820E030E048EC76
:204AE00052E40E942CB8E7E9CE2EE7E0DE2E7B018C0125E837E041E957E06DE877E089E8B0
:204B000097E00E94315F8091790790917A07A0917B07B0917C078093A4079093A507A09382
:204B2000A607B093A70780917D0790917E07A0917F07B09180078093A8079093A907A09355
:204B4000AA07B093AB078091810790918207A0918307B09184078093AC079093AD07A09315
:204B6000AE07B093AF078091850790918607A0918707B09188078093B0079093B107A093D5
:204B8000B207B093B3071F910F91FF90EF90DF90CF900895CF93DF9380E090E0AAEFB5E4C0
:204BA0008093070290930802A0930902B0930A02C9E7D7E0188219821A821B8210927D0724
:204BC00010927E0710927F071092800780E090E0A0EAB1E48093810790938207A09383076A
:204BE000B09384074DDF60915D0770915E0780915F07909160070E9494B8709327026093F4
:204C0000260280E090E0A8E4B4E48093070290930802A0930902B0930A02188219821A82D1
:204C20001B822EDFDF91CF910C94717184E690E0909327028093260280E090E0AAEFB5E415
:204C40008093070290930802A0930902B0930A0217DF1092790710927A0710927B0710927D
:204C60007C0710927D0710927E0710927F071092800780E090E0A8ECB2E48093810790935B
:204C80008207A0938307B0938407FACE8F929F92AF92BF92CF92DF92EF92FF920F931F931C
:204CA000CF93DF938091280290912902A0912A02B0912B028093070290930802A093090247
:204CC000B0930A02DDDE0E94717181E00E94306A0CEA17E0F801C080D180E280F38082E0FB
:204CE0000E94CB714B015C0180E090E0AAE7B4E48093070290930802A0930902B0930A025E
:204D0000C1E8D7E080E090E0A8ECB1EC88839983AA83BB83B5DE0E9471710E94296A80E0F4
:204D20000E94306A82E00E94CB71A5019401261B370B480B590BCA01B9010E94C7B820912B
:204D400016113091171140911811509119110E942CB89B01AC01C701B6010E944BB76B01E0
:204D60007C01F801608371838283938384EA97E09FDA20EB37E041E957E06DE877E089E8CD
:204D800097E00E94746880E090E0AAEFB5E48093070290930802A0930902B0930A0220E046
:204DA00030E040E751E4C701B6010E944CB7688379838A839B8364DEC701B601DF91CF91C0
:204DC0001F910F91FF90EF90DF90CF90BF90AF909F908F9008952F923F924F925F926F92C9
:204DE0007F928F929F92AF92BF92CF92DF92EF92FF920F931F93CF93DF93CDB7DEB76097A2
:204E00000FB6F894DEBF0FBECDBF0DEC16E09DE3892E97E0992E2AEB422E512C23E030E0D2
:204E2000388B2F873F8530FF04C0AA24AA94BA2C03C0AA24A394B12C4DEF95014203600133
:204E4000439FD00C1124C501880F991F880F991F9C838B83EF85F889EE9FD001EF9FB00D30
:204E6000B00D1124BE83AD834EE34A9D90014B9D300D11243A832983ACE1AA9DC001AB9D86
:204E8000900D112498878F832EE32C9DF0012D9DF00D1124FA87E98737E03C9D70013D9D1C
:204EA000F00C11248F859889E80EF91EEE0CFF1CEE0CFF1CD701A756B94F7D01612C712CD0
:204EC000212C312CC201AA2797FDA095BA2F8B879C87AD87BE878B819C81C816D90609F451
:204EE00061C0CC9CC001CD9C900D900D1124AD81BE818A0F9B1F0B970CF040C089859A8505
:204F0000820D931DBC01882777FD8095982F0E94C7B82091BA073091BB074091BC0750910B
:204F2000BD070E944BB76093790770937A0780937B0790937C076B857C858D859E850E940F
:204F4000C7B82091BE073091BF074091C0075091C1070E944BB760937D0770937E078093DE
:204F60007F079093800792DEF701E60DF71DE05AFF4F608371838283938309C0F701E60D64
:204F8000F71DE05AFF4F1082118212821382CA0CDB1CE981FA812E0E3F1E2F813885620EFF
:204FA000731E99CF8F85988997FF03C091958195910983309105A9F4F801848D958DA68D4F
:204FC000B78D80839183A283B383EC5AFF4F80819181A281B381F40180839183A283B383B6
:204FE00002C0029799F4F80180819181A281B3817C9780839183A283B383F40180819181D9
:20500000A281B381848F958FA68FB78FE12CF12C6801F8E2CF1AD108F601EE0DFF1D448581
:2050200055856685778523E030E088E594E00E941C17E0E4F6E08491882341F09091C0007A
:2050400095FFFCCF8093C6003196F5CFFCE1EF0EF11C24ECE216F104F9F68091C00085FF65
:20506000FCCF3AE03093C6008F8598890197988B8F870450110994E0891A9108AEE34A1AA9
:205080005108EF85F889349609F0CCCE60960FB6F894DEBF0FBECDBFDF91CF911F910F9108
:2050A000FF90EF90DF90CF90BF90AF909F908F907F906F905F904F903F902F9008952F9270
:2050C0003F924F925F926F927F928F929F92AF92BF92CF92DF92EF92FF920F931F93CF939D
:2050E000DF93CDB7DEB766970FB6F894DEBF0FBECDBF89E797E04AD80E940AB16093F00494
:205100007093F1048093F2049093F304CE0101967C0164EAC62E67E0D62E09E717E0D80144
:205120006D917D918D919D918D01F60121913191419151916F010E944BB7D7016D937D936E
:205140008D939D937D01B7E009381B0741F769817A818B819C818D809E80AF80B884C9845E
:20516000DA84EB84FC849B01AC010E94FABA2B013C01A5019401C501B4010E94FABA9B0132
:20518000AC01C301B2010E944CB74B015C01A7019601C701B6010E94FABA9B01AC01C5017A
:2051A000B4010E944CB70E9467BB6B017C012DEB37E346E855E30E9425B887FF11C0CD8429
:2051C000DE84EF84F88820E030E0A901C701B6010E9428BA181624F0F7FAF094F7F8F09493
:2051E0002DEB37E346E855E3C701B6010E9425B887FDFFC020E030E84BEB55E4C701B601D0
:205200000E94FABA20910702309108024091090250910A020E942CB86B017C016091260262
:2052200070912702882777FD8095982F0E94C7B89B01AC01C701B6010E942CB820E030E0C6
:2052400040EF52E40E94FABA0E9494B85B01161617061CF0AA24A394B12C88248394912C92
:20526000C501AA2797FDA095BA2F8B8B9C8BAD8BBE8BB401882777FD8095982F0E94C7B852
:205280006B017C016B897C898D899E890E94C7B89B01AC01C701B6010E942CB82B013C0117
:2052A000A9E7B7E0BA8BA98BFE0131961F0104EA17E0D801CD90DD90ED90FD908D01F10156
:2052C00061917191819191911F01A30192010E94FABA9B01AC01C701B6010E944CB7A9895A
:2052E000BA896D937D938D939D93BA8BA98BB7E0043B1B07F1F689E797E00E94582189E741
:2053000097E0E8D96091260270912702882777FD8095982F0E94C7B820910702309108026D
:205320004091090250910A020E94FABA20E030E040E752E40E942CB820E030E048EC52E4E1
:205340000E942CB837E9C32E37E0D32E7B018C0125E837E041E957E06DE877E089E897E07C
:205360000E94315FEFEF8E1A9E0AA814B9040CF080CF8091790790917A07A0917B07B091E2
:205380007C078093A4079093A507A093A607B093A70780917D0790917E07A0917F07B091F9
:2053A00080078093A8079093A907A093AA07B093AB078091810790918207A0918307B091B9
:2053C00084078093AC079093AD07A093AE07B093AF078091850790918607A0918707B09179
:2053E00088078093B0079093B107A093B207B093B30766960FB6F894DEBF0FBECDBFDF91DD
:20540000CF911F910F91FF90EF90DF90CF90BF90AF909F908F907F906F905F904F903F9079
:205420002F900895EF92FF920F931F93CF93DF938091070290910802A0910902B0910A0208
:205440008093910690939206A0939306B093940680912602909127029093B5078093B4070E
:2054600080E090E0AAEFB5E48093070290930802A0930902B0930A020E941F220E941F228E
:2054800079E7E72E77E0F72EF70110821182128213820DE717E0F8011082118212821382A3
:2054A000C1E8D7E080E090E0A0E2B1E488839983AA83BB8304DE0E94717160915D07709157
:2054C0005E0780915F07909160070E9494B87093270260932602F7011082118212821382ED
:2054E000F80110821182128213828DEC9CECACECBDE388839983AA83BB83E1DD0E94717158
:205500008091910690919206A0919306B09194068093070290930802A0930902B0930A02AF
:205520008091B4079091B5079093270280932602DF91CF911F910F91FF90EF900895AF922F
:20554000BF92CF92DF92EF92FF920F931F93CF93DF93D82F20917107309172074091730739
:205560005091740760916D0770916E0780916F07909170070E9435BAC62F172F082FF92EAB
:205580006091260270912702882777FD8095982F0E94C7B820910702309108024091090247
:2055A00050910A020E94FABA20E030E040E752E40E942CB820E030E048EC52E40E942CB8B5
:2055C000209197072F93DF93FF920F931F93CF935B016C01E2E0EE2E01E020E04DE657E00F
:2055E00069E777E084EA97E00E9402578091790790917A07A0917B07B0917C078093A407BC
:205600009093A507A093A607B093A70780917D0790917E07A0917F07B09180078093A8076E
:205620009093A907A093AA07B093AB078091810790918207A0918307B09184078093AC072E
:205640009093AD07A093AE07B093AF078091850790918607A0918707B09188078093B007EE
:205660009093B107A093B207B093B3070E940AB16093F0047093F1048093F2049093F30407
:205680000F900F900F900F900F900F90DF91CF911F910F91FF90EF90DF90CF90BF90AF90C6
:2056A0000895F8940E9441755F9A8A9A9FB7F894809108018160809308019FBF129A60E009
:2056C0008CE00E94F5B2E3EFF8E08491882341F09091C00095FFFCCF8093C6003196F5CFD6
:2056E000EEE3F4E08491882341F09091C00095FFFCCF8093C6003196F5CF8091C00085FF1B
:20570000FCCF8AE08093C60085E394E00E94D98DFFCFCF92DF92EF92FF920F931F930E94EF
:205720000AB10091EC041091ED042091EE043091EF04C090F004D090F104E090F204F090C5
:20574000F3046C197D098E099F09061717072807390728F4012B022B032B09F0A2DF809130
:20576000E8049091E904A091EA04B091EB04892B8A2B8B2B09F10E940AB10091F004109144
:20578000F1042091F2043091F304601B710B820B930B0091E8041091E9042091EA04309128
:2057A000EB04061717072807390730F49091DC0B8091DB0B981751F0909BD0CF1F910F9123
:2057C000FF90EF90DF90CF900C94145F5F9A8A9A9FB7F894809108018160809308019FBF66
:2057E000129AEACF0E9441758091DE04811138C081E08093DE048091890690918A06A09197
:205800008B06B0918C068093850690938606A0938706B0938806E3EFF8E08491882341F0AB
:205820009091C00095FFFCCF8093C6003196F5CFEFEBF3E08491882341F09091C00095FFB1
:20584000FCCF8093C6003196F5CF8091C00085FFFCCF8AE08093C60085EB93E00C94CA8DDC
:2058600008958091DE040895CF93DF93EC01809197078093DF0484E50E94521B811102C0C9
:2058800080E065C00E943E1B0E9499B86093DF046623B1F3EDEEF8E08491882341F09091CD
:2058A000C00095FFFCCF8093C6003196F5CFC936D10599F034F4C836D105C9F5ECE2F3E0AC
:2058C00015C0CD36D10531F0CA3DD10581F5E7EEF2E02AC0EEEFF2E01DC0E5E1F3E010C020
:2058E0009091C00095FFFCCF8093C60081918111F7CF1DC09091C00095FFFCCF8093C6002F
:2059000081918111F7CF13C09091C00095FFFCCF8093C60081918111F7CF09C09091C0001D
:2059200095FFFCCF8093C60081918111F7CF40E050E06091DF0488E594E00E947D1680917A
:20594000C00085FFFCCF8AE08093C60081E0DF91CF9108953F924F925F926F927F928F9251
:205960009F92AF92BF92CF92DF92EF92FF920F931F93CF93DF93CDB7DEB7A0970FB6F894B7
:20598000DEBF0FBECDBF87E40E94521B882309F4C3C10E943E1B0E9494B86C31710509F472
:2059A0008CC084F46230710579F124F477FF23C00C94153B6330710579F164307105B1F131
:2059C0000C94153B6A35710509F452C154F46D31710509F478C06E31710509F4DFC00C94D0
:2059E000153B6B35710509F447C16C35710509F448C10C94153B8091DE04811105C00E9443
:205A000019205DDB0C948D3C8091DE04811104C00E94982081E007C08091DE04811106C096
:205A20000E94982080E08BDD0C948D3C85E396E00E94CA8D80E50E94521B882339F00E941A
:205A40003E1B0E9499B84B015C0103C0812C912C540183E50E94521B882361F00E943E1B61
:205A600020E030E04AE754E40E94FABA0E9499B84B015C010E9471710E940AB16B017C01F1
:205A8000C80CD91CEA1CFB1C0E940AB16093F0047093F1048093F2049093F3040E940AB164
:205AA0006C157D058E059F0510F00C94153B0E9416732FDE0E94618EF1CF0E941F220E94AE
:205AC0001F220C94153B80E090E1A4EAB6E48093910690939206A0939306B093940680917D
:205AE0002602909127029093B5078093B40784E690E090932702809326020E941F220E94A1
:205B00001F2248D8C090C207D090C307E090C407F090C5078AE50E94521B882329F00E9476
:205B20003E1B9B01AC0108C020916107309162074091630750916407C701B6010E944CB70D
:205B40006093610770936207809363079093640742D96CD880E090E8ABEBB5E480930702F1
:205B600090930802A0930902B0930A028091B4079091B50790932702809326020E940AB1DE
:205B80006093F0047093F1048093F2049093F3040E94296A0E94AD0E0C94153B80E090E1B0
:205BA000A4EAB6E48093910690939206A0939306B093940680912602909127029093B5074D
:205BC0008093B40784E690E090932702809326020E941F220E94CA25C090C207D090C307DF
:205BE000E090C407F090C5078AE50E94521B882329F00E943E1B9B01AC0108C020916107B7
:205C0000309162074091630750916407C701B6010E944CB76093610770936207809363076B
:205C200090936407D8D802D880E090E8ABEBB5E48093070290930802A0930902B0930A026F
:205C40008091B4079091B50790932702809326020E940AB16093F0047093F1048093F204CF
:205C60009093F3040E94296A0E94AD0E0C94153B109284060C94153B81E0809384060C94CE
:205C8000153B85E40E94521B811102C00E9471716DEDC62E63E0D62E78E9E72E77E0F72EDD
:205CA00004EA17E0B12CF60181916F010E94521B882339F1F3E0BF120CC00E943E1BF80161
:205CC000608371838283938380EB97E00E94196918C00E943E1BF701208131814281538117
:205CE0000E944CB7F801608371838283938320EB37E04CEA57E068EA77E084EA97E00E9455
:205D00007468B394F4E0EF0EF11C0C5F1F4F24E0B212C9CF0C94153B8DE40E94521B88232E
:205D200011F40C94443A0E943E1B0E9494B86936710509F40CC40CF0B9C06A31710509F4F2
:205D400037C20CF047C06231710509F4EDC63CF56330710509F4B3C134F46230710508F4B7
:205D600054C10C94153B6530710509F4B7C10CF4AEC16131710511F00C94153B8CE096E054
:205D80000E94CA8D5F988A989FB7F894809108018E7F809308019FBF12980C94153B66313D
:205DA000710509F4D1C17CF46431710509F49EC16531710511F00C94153B8AEC97E00E947B
:205DC000774F0C94153B6831710509F4DBC10CF4C1C1E8C16035710509F493C6DCF46E316A
:205DE000710509F42EC254F46B31710509F4EEC16C31710509F4F0C10C94153B6032710581
:205E000009F45DC20CF4C1C26A32710509F446C30C94153B6435710509F486C61CF56235DB
:205E2000710509F47AC60CF07BC60E9441750E947171129A0E94D971109296071092950781
:205E400068EE73E080E090E00E9439B1269A2E9A10920B0289E595E00E94CA8D0E94618E99
:205E60000C94153B6C35710509F490C66836710509F43FC36535710511F00C94153B83E54C
:205E80000E94521B0E943E1B20E030E04AE754E40E94FABA0E9499B86093EC047093ED045F
:205EA0008093EE049093EF040C94153B6D3C710511F40C944A380CF04FC06737710509F475
:205EC000A1C024F56D36710509F44DC47CF46A36710509F4E8C56B36710511F00C94153BE9
:205EE00010929607109295070C94153B6337710509F4CDC66537710509F4D7C662377105DA
:205F000011F00C94153BE8EBF4E0EAC66E3B710509F4C6C464F46937710509F4BAC70CF4A7
:205F2000B4C76C38710509F401C30C94153B6B3C710511F40C940E3814F00C942A38693C68
:205F4000710511F00C94153B0DED13E09EEFE92E90E1F92E0C94F4376F3231E0730711F4B5
:205F60000C94EC3914F56D3D710511F40C94D33864F46E3C710511F40C94A8386C3D710567
:205F800011F40C94C4380C94153B6D3291E0790711F40C94183914F00C94DE396C327140E0
:205FA00011F40C94E2380C94153B663F21E0720711F40C942A3A94F4643F81E0780711F4FA
:205FC0000C94243A14F00C94273A6039714011F00C94153B0E9471710C94153B603AF3E0A2
:205FE0007F0709F49EC1673E23E0720711F40C942D3A673F714011F00C94153B0E94B00FE9
:206000000C94153BE2E5F3E04EC784E296E00E94CA8D80E50E94521B882339F00E943E1BC9
:206020000E9499B86B017C0103C0C12CD12C760183E50E94521B882361F00E943E1B20E0F2
:2060400030E04AE754E40E94FABA0E9499B86B017C010E9471710E940AB16093F0047093CA
:20606000F1048093F2049093F304C114D104E104F104A9F00E940AB14B015C018C0C9D1C94
:20608000AE1CBF1C0E940AB1681579058A059B0580F40E94228F81110CC00C94183B0E941A
:2060A000228F811106C00E94167333DB0E94618EF6CF85E196E00E94CA8D0C94153B0E94E1
:2060C000717161E083E00E942EB30C94153B68E070E083E00E94DDB10C94153B0E94717128
:2060E00060E083E00E942EB30C94153BECEFF5E08491882341F09091C00095FFFCCF809396
:20610000C6003196F5CF8091C00085FFFCCF8AE08093C6008AEC97E00E94204FEEEEF5E01C
:206120008491882341F09091C00095FFFCCF8093C6003196F5CF8091C00085FFFCCF8AE040
:206140008093C6000C94153B8AEC97E00E943B500C94153B0091F4041091F5040C5F1F4F70
:206160006AE270E0C8010E9478BF009719F0FC013197108241E0B8018AEC97E00E944B50E6
:206180000C94153B8AEC97E00E943F500E940AB16093E4047093E5048093E6049093E704C2
:2061A0000C94153B8AEC97E00E9446500C94153B8091CD07882311F40C94153B83E50E944B
:2061C000521B81110C94203B0C94153B8AEC97E00E946D530C94153B8091F4049091F50473
:2061E0006AE270E004960E9478BF8C010097E1F02091FE043091FF0440E6429FC001439F7A
:20620000900D11246EE470E08C5F9A4F0E9478BF60E270E00E9478BF01969093F50480932C
:20622000F404F801319710826091F4047091F5046C5F7F4F40E08AEC97E00E944B500C94AD
:20624000153B8091CD07882311F40C94153B8AEC97E00E9427558091F4049091F5046AE2EF
:2062600070E004960E9478BF8C010097E1F02091FE043091FF0440E6429FC001439F900DA8
:2062800011246EE470E08C5F9A4F0E9478BF60E270E00E9478BF01969093F5048093F40451
:2062A000F801319710826091F4047091F5046C5F7F4F8AEC97E00E9434520C94153B8091F9
:2062C000CC07882341F00E9471718AEC97E00E9427551092CC070091F4041091F5040C5F7D
:2062E0001F4F6AE270E0C8010E9478BF009719F0FC013197108241E0B8018AEC97E00E9492
:206300004B508AEC97E00E943F500E940AB16093E4047093E5048093E6049093E7040C94F5
:20632000153B8091F4049091F5046AE270E005960E9478BF8C010097E1F02091FE04309171
:20634000FF0440E6429FC001439F900D11246EE470E08C5F9A4F0E9478BF60E270E00E943B
:2063600078BF01969093F5048093F404F801319710826091F4047091F5046B5F7F4F8AECE4
:2063800097E00E942F520C94153B0E940AB16093E0047093E1048093E2049093E3040091C3
:2063A000E4041091E5042091E6043091E704601B710B820B930B28EE33E040E050E00E94E7
:2063C000F6BBCA01B9012CE330E040E050E00E94F6BB7F936F933F932F938FED95E09F93FA
:2063E0008F93CE0101969F938F930E94A7BFEDEEF8E084910FB6F894DEBF0FBECDBFEDEECF
:20640000F8E0882349F09091C00095FFFCCF8093C60031968491F5CFFE0131968191882384
:2064200039F09091C00095FFFCCF8093C600F6CF8091C00085FFFCCF8AE08093C600CE0123
:2064400001960E94BB8D8091AD10882311F40C94153B1092AD100091970710E0000F111F90
:2064600007531E4EF80160817181882777FD8095982F0E94C7B820913C0230913D024091AA
:206480003E0250913F020E9428BA181614F00C94153BF801118210820C94153B83E50E94DC
:2064A000521B882311F40C94153B0E943E1B6B017C0180E50E94521B882351F0C701B6010C
:2064C0000E9494B86F3F710509F010F40C94303B6DE070E020E0E22FEE0FFF0BEB55FC4F62
:2064E000808191818617970711F40C94153B2F5FF2CF88E690E0B8D981110C94153B83E5B1
:206500000E94521B882371F00091DF040E943E1B10E0000F111F07531E4E0E9494B8F80115
:20652000718360830E9440750C94153B83E50E94521B882311F40C94153B0E943E1B0E9489
:2065400094B87093C8116093C7110C94153B89E690E08AD981110C94153BE9EDF5E08491D4
:20656000882341F09091C00095FFFCCF8093C6003196F5CFE091DF0424E0E29FF00111249C
:20658000EF53FE4E408151816281738121E030E088E594E00E941C17E6EDF5E084918823D4
:2065A00041F09091C00095FFFCCF8093C6003196F5CFE091DF04F0E0EE0FFF1FE753FE4E41
:2065C00060817181882777FD8095982F0E94C7B8AB01BC0121E030E088E594E00E941C1798
:2065E000E2EDF5E08491882341F09091C00095FFFCCF8093C6003196F5CF4091BB115091E4
:20660000BC116091BD117091BE1121E030E088E594E00E941C17EFECF5E08491882341F0B6
:206620009091C00095FFFCCF8093C6003196F5CF6091C7117091C811882777FD8095982F14
:206640000E94C7B8AB01BC0121E030E088E594E00E941C17ECECF5E08491882341F090912A
:20666000C00095FFFCCF8093C6003196F5CF4AE050E060E070E088E594E00E944616EAECF8
:20668000F5E08491882341F09091C00095FFFCCF8093C6003196F5CF4091C1115091C21139
:2066A0006091C3117091C41121E030E088E594E00E941C17E7ECF5E08491882341F09091BE
:2066C000C00095FFFCCF8093C6003196F5CF6091C9117091CA11882777FD8095982F0E94EF
:2066E000C7B8AB01BC0121E030E088E594E00E941C17E3ECF5E08491882341F09091C00075
:2067000095FFFCCF8093C6003196F5CF8091DF0490E00E940B734AE050E0BC0188E594E03A
:206720000E944616EEEBF5E08491882341F09091C00095FFFCCF8093C6003196F5CF8FEF9A
:206740009FEF0E940B734AE050E0BC0188E594E00E9446168091C00085FFFCCF8AE08093F8
:20676000C6000C948D3C8DE690E07ED881115DC783EB95E00E94CA8D1092AD1083E50E94B6
:20678000521B882391F00091DF040E943E1B10E0000F111F07531E4E0E9494B8F801718321
:2067A000608381E08093060215C082E50E94521B882381F00091DF040E943E1B10E0000FA5
:2067C000111F07531E4E0E9494B8F801718360831092060283E50E94521B882351F00E9456
:2067E0003E1B60933C0270933D0280933E0290933F0282E40E94521B882351F00E943E1BBA
:206800006093400270934102809342029093430286E40E94521B882369F00E943E1B6093D3
:2068200038027093390280933A0290933B0281E08093AD100E9440750E940AB14B015C01A3
:206840000091DF0410E0F801EE0FFF1FE753FE4E60817181882777FD8095982F0E94C7B847
:20686000F801EE0FFF1FEE0FFF1FEF53FE4E11E020813181428153810E9428BA18160CF0D2
:2068800010E01093DD04CC24CA94DC2C760138EE432E33E0532E612C712C4AE0342E43C7CC
:2068A0008DE895E00E94CA8D83E50E94521B882361F00E943E1B0E9494B87093C8116093CA
:2068C000C71181E0809306020FC082E50E94521B882351F00E943E1B0E9494B87093C8116E
:2068E0006093C711109206020E940AB14B015C016091C7117091C811882777FD8095982F7B
:206900000E94C7B811E02091BB113091BC114091BD115091BE110E9428BA18160CF010E06D
:206920001093DD040AE815E046E8E42E45E0F42E52E8C52E55E0D52E6AE0762E8091DD0420
